S00F0000474943333030322E737265637D
S113000014C023C022C021C020C01FC01EC01DC0F8
S11300101CC01BC01AC0F2C218C017C016C015C03D
S113002014C013C012C011C010C011241FBECFE5EC
S1130030D2E0DEBFCDBF20E0A0E6B0E001C01D925B
S1130040A638B207E1F706D34CC3DACF8FEF8ABBE9
S113005084BB80EC81BB08958CE089B910BC80E935
S11300608AB9089510926700109266001092690090
S11300701092680010926B0010926A0010926D004A
S113008010926C0010926F0010926E00109271002A
S1130090109270001092730010927200109275000A
S11300A010927400109277001092760010927900EA
S11300B01092780010927B0010927A0010927D00CA
S11300C010927C0010927F0010927E0010928100AA
S11300D0109280001092830010928200109285008A
S11300E01092840010928700109286008EE790E0B0
S11300F090938900809388002AE030E030938B004D
S113010020938A0022E030E030938D0020938C000D
S113011010928F0010928E00909391008093900023
S11301204AE150E0509393004093920024E630E07B
S113013030939500209394001092970010929600AB
S113014090939900809398006AE470E070939B0008
S113015060939A0062E470E070939D0060939C0049
S113016010929F0010929E009093A1008093A00093
S11301707093A3006093A2006CE370E07093A500F9
S11301806093A4001092A7001092A6009093A90077
S11301908093A8005093AB004093AA003093AD0025
S11301A02093AC001092AF001092AE009093B10077
S11301B08093B0001092B3001092B2009093B500F7
S11301C08093B40088E190E09093B7008093B600E8
S11301D086E690E09093B9008093B8001092BB003B
S11301E01092BA001092BD001092BC001092BF0091
S11301F01092BE001092C1001092C0001092C30071
S11302001092C2001092C5001092C4001092C70050
S11302101092C6001092C9001092C8001092CB0030
S11302201092CA001092CD001092CC001092CF0010
S11302301092CE001092D1001092D0001092D300F0
S11302401092D2001092D5001092D4001092D700D0
S11302501092D6001092D9001092D8001092650026
S113026010926400089528E030E040E812BA85BB9B
S1130270880F991F42BB2150310921153105B1F76F
S113028008952F923F924F925F926F927F928F9236
S11302909F92AF92BF92CF92DF92EF92FF920F9311
S11302A01F93CF93DF93CDB7DEB7A1970FB6F89422
S11302B0DEBF0FBECDBF1092670010926600109291
S11302C069001092680010926B0010926A001092FC
S11302D06D0010926C0010926F0010926E001092DC
S11302E071001092700010927300109272001092BC
S11302F0750010927400109277001092760010929C
S113030079001092780010927B0010927A0010927B
S11303107D0010927C0010927F0010927E0010925B
S1130320810010928000109283001092820010923B
S113033085001092840010928700109286008EE748
S113034090E0909389008093880020E430E030931B
S11303508B0020938A0030938D0020938C001092A0
S11303608F0010928E002CE330E0309391002093A4
S1130370900042E450E050939300409392003093F5
S113038095002093940010929700109296006CE7C9
S113039070E07093990060939800E2E1F0E0F093CC
S11303A09B00E0939A0070939D0060939C001092D0
S11303B09F0010929E009093A1008093A000509300
S11303C0A3004093A2003093A5002093A4001092B0
S11303D0A7001092A6009093A9008093A800109201
S11303E0AB001092AA009093AD008093AC004CE057
S11303F050E05093AF004093AE0040E350E0509380
S1130400B1004093B0009093B3008093B200109277
S1130410B5001092B4003093B7002093B60082E583
S113042090E09093B9008093B80084E390E09093B7
S1130430BB008093BA001092BD001092BC001092D1
S1130440BF001092BE001092C1001092C000109222
S1130450C3001092C2001092C5001092C400109202
S1130460C7001092C6001092C9001092C8001092E2
S1130470CB001092CA001092CD001092CC001092C2
S1130480CF001092CE001092D1001092D0001092A2
S1130490D3001092D2001092D5001092D400109282
S11304A0D7001092D6001092D9001092D800109262
S11304B0DB001092DA001092650010926400FE01D5
S11304C0319680E2DF011D928A95E9F7812C912C07
S11304D00F2EF0EEEF2EFEE2FF2EF02DA12CB12C0C
S11304E0612C712C00E010E06894552456F8212CFE
S11304F019A20F2EF0EE3F2EF02D0F2EFEE24F2EFE
S1130500F02D5BC0F801E80DF91DEE0FFF1FEA594D
S1130510FF4F20813181F801EE0FFF1F81E090E051
S11305208C0F9D1FE80FF91F8081918182279327EB
S11305309ADE52BA0BBB12BA0F5F1F4F003111057E
S113054011F4022D19A191E0E91AF108E114F10462
S113055009F5F301EE0FFF1FA1E0B0E0AC0FBD1FE2
S1130560EA0FFB1F80819181880F991F0196918367
S11305708083BFEFAB1ABB0A28E0A216B10441F492
S11305808FEF681A780AE32CF42CA22CB9A002C0CD
S1130590E32CF42C91E0C91AD108C114D10409F058
S11305A0B1CFC301AFEF8A1A9A0ABAE28B1691044B
S11305B011F4812C912C409744F46894CC24C7F80E
S11305C00F2EFEE3DF2EF02D9DCFA1960FB6F894EB
S11305D0DEBF0FBECDBFDF91CF911F910F91FF9072
S11305E0EF90DF90CF90BF90AF909F908F907F90CF
S11305F06F905F904F903F902F9008951F920F92AD
S11306000FB60F9211248F939F93EF93FF93ECB146
S1130610F0E08FE097E20197F1F700C000008CB1A1
S113062090E0EE0FFF1FEA59FF4F918380831092F1
S113063063001092620081E090E0909361008093E7
S11306406000FF91EF919F918F910F900FBE0F90DB
S11306501F901895FBDC00DD14DE04DD789400E8BF
S11306601EE3C0E0D0E0E12CF12C6894CC24C7F860
S11306700F2EFEE3DF2EF02DA12CB12C68949924CB
S113068096F81DC0F701EC0FFD1FEE0FFF1FEA598E
S1130690FF4F80819181E7DD92BA12BAEBBA8FEFF6
S11306A0E81AF80A80E1E816F10411F4EA2CFB2CAC
S11306B00150110904C00C2D1D2DCA2DDB2D01156F
S11306C0110501F72196C932D10511F4CA2DDB2D8C
S11306D08091600090916100892B69F70C2D1D2D8C
S10906E0EECFF894FFCFF9
S9030000FC
